:020000040000FA
:020000000528D1
:020008004D2881
:06000A00831603132430ED
:1000100098001930990083120313903098008316CA
:100020000317403087000313831688018701FF30D0
:100030008600FF3095000730810083160317890181
:100040008B178B16831203138801A601FF30A300C0
:10005000A4000F30A500A30B2B28FF30A300A40B96
:100060002B28FF30A400A50B2B28A60A26080A3A45
:100070000319A6018C1A4720260867208800260845
:10008000303E8316981C42288312990026281A08AD
:10009000A70030302702A6000800F100030EF00090
:1000A000DC3081000B1122185D20221C6220A20A84
:1000B000700E8300F10E710E09008714000000001D
:1000C00007100800071400000000871008008207CE
:1000D000C034F934A434B034993492348234F834CE
:0600E000803490348A34E4
:02400E00E12FA0
:02401000FF3F70
:00000001FF
